{
  "contractName": "Feedback",
  "abi": [
    {
      "inputs": [
        {
          "internalType": "uint256",
          "name": "token",
          "type": "uint256"
        },
        {
          "internalType": "string[]",
          "name": "regNo",
          "type": "string[]"
        },
        {
          "internalType": "string[]",
          "name": "phone",
          "type": "string[]"
        },
        {
          "internalType": "string[]",
          "name": "email",
          "type": "string[]"
        },
        {
          "internalType": "uint256[5]",
          "name": "Times",
          "type": "uint256[5]"
        },
        {
          "internalType": "uint256",
          "name": "NoOfQuestions",
          "type": "uint256"
        }
      ],
      "stateMutability": "nonpayable",
      "type": "constructor"
    },
    {
      "inputs": [
        {
          "internalType": "uint256",
          "name": "",
          "type": "uint256"
        }
      ],
      "name": "Email",
      "outputs": [
        {
          "internalType": "string",
          "name": "",
          "type": "string"
        }
      ],
      "stateMutability": "view",
      "type": "function",
      "constant": true
    },
    {
      "inputs": [
        {
          "internalType": "uint256",
          "name": "",
          "type": "uint256"
        }
      ],
      "name": "Phone",
      "outputs": [
        {
          "internalType": "string",
          "name": "",
          "type": "string"
        }
      ],
      "stateMutability": "view",
      "type": "function",
      "constant": true
    },
    {
      "inputs": [
        {
          "internalType": "uint256",
          "name": "",
          "type": "uint256"
        }
      ],
      "name": "RegNo",
      "outputs": [
        {
          "internalType": "string",
          "name": "",
          "type": "string"
        }
      ],
      "stateMutability": "view",
      "type": "function",
      "constant": true
    },
    {
      "inputs": [],
      "name": "StartFeedbackTime",
      "outputs": [
        {
          "internalType": "uint256",
          "name": "",
          "type": "uint256"
        }
      ],
      "stateMutability": "view",
      "type": "function",
      "constant": true
    },
    {
      "inputs": [],
      "name": "StartRegisterTime",
      "outputs": [
        {
          "internalType": "uint256",
          "name": "",
          "type": "uint256"
        }
      ],
      "stateMutability": "view",
      "type": "function",
      "constant": true
    },
    {
      "inputs": [],
      "name": "StartResultTime",
      "outputs": [
        {
          "internalType": "uint256",
          "name": "",
          "type": "uint256"
        }
      ],
      "stateMutability": "view",
      "type": "function",
      "constant": true
    },
    {
      "inputs": [],
      "name": "StopFeedbackTime",
      "outputs": [
        {
          "internalType": "uint256",
          "name": "",
          "type": "uint256"
        }
      ],
      "stateMutability": "view",
      "type": "function",
      "constant": true
    },
    {
      "inputs": [],
      "name": "StopRegisterTime",
      "outputs": [
        {
          "internalType": "uint256",
          "name": "",
          "type": "uint256"
        }
      ],
      "stateMutability": "view",
      "type": "function",
      "constant": true
    },
    {
      "inputs": [],
      "name": "Token",
      "outputs": [
        {
          "internalType": "uint256",
          "name": "",
          "type": "uint256"
        }
      ],
      "stateMutability": "view",
      "type": "function",
      "constant": true
    },
    {
      "inputs": [],
      "name": "candidatescount",
      "outputs": [
        {
          "internalType": "uint256",
          "name": "",
          "type": "uint256"
        }
      ],
      "stateMutability": "view",
      "type": "function",
      "constant": true
    },
    {
      "inputs": [],
      "name": "chairperson",
      "outputs": [
        {
          "internalType": "address",
          "name": "",
          "type": "address"
        }
      ],
      "stateMutability": "view",
      "type": "function",
      "constant": true
    },
    {
      "inputs": [
        {
          "internalType": "uint256",
          "name": "",
          "type": "uint256"
        }
      ],
      "name": "feedbacks",
      "outputs": [
        {
          "internalType": "uint256",
          "name": "qid",
          "type": "uint256"
        },
        {
          "internalType": "string",
          "name": "answer",
          "type": "string"
        }
      ],
      "stateMutability": "view",
      "type": "function",
      "constant": true
    },
    {
      "inputs": [],
      "name": "questionsCount",
      "outputs": [
        {
          "internalType": "uint256",
          "name": "",
          "type": "uint256"
        }
      ],
      "stateMutability": "view",
      "type": "function",
      "constant": true
    },
    {
      "inputs": [
        {
          "internalType": "string[]",
          "name": "Answers",
          "type": "string[]"
        }
      ],
      "name": "giveFeedback",
      "outputs": [],
      "stateMutability": "nonpayable",
      "type": "function"
    },
    {
      "inputs": [
        {
          "internalType": "uint256",
          "name": "_qid",
          "type": "uint256"
        }
      ],
      "name": "getAnswersForQid",
      "outputs": [
        {
          "internalType": "string[]",
          "name": "",
          "type": "string[]"
        }
      ],
      "stateMutability": "view",
      "type": "function",
      "constant": true
    }
  ],
  "bytecode": "0x60806040523480156200001157600080fd5b5060405162001bf738038062001bf7833981810160405281019062000037919062000601565b336000806101000a81548173ffffffffffffffffffffffffffffffffffffffff021916908373ffffffffffffffffffffffffffffffffffffffff1602179055508560018190555084600990805190602001906200009692919062000186565b5083600a9080519060200190620000af92919062000186565b5082600b9080519060200190620000c892919062000186565b5081600060058110620000e057620000df620006fc565b5b602002015160048190555081600160058110620001025762000101620006fc565b5b602002015160058190555081600260058110620001245762000123620006fc565b5b602002015160068190555081600360058110620001465762000145620006fc565b5b602002015160078190555081600460058110620001685762000167620006fc565b5b60200201516008819055508060028190555050505050505062000a53565b828054828255906000526020600020908101928215620001d3579160200282015b82811115620001d2578251829081620001c191906200096c565b5091602001919060010190620001a7565b5b509050620001e29190620001e6565b5090565b5b808211156200020a57600081816200020091906200020e565b50600101620001e7565b5090565b5080546200021c9062000765565b6000825580601f1062000230575062000251565b601f01602090049060005260206000209081019062000250919062000254565b5b50565b5b808211156200026f57600081600090555060010162000255565b5090565b6000604051905090565b600080fd5b600080fd5b6000819050919050565b6200029c8162000287565b8114620002a857600080fd5b50565b600081519050620002bc8162000291565b92915050565b600080fd5b6000601f19601f8301169050919050565b7f4e487b7100000000000000000000000000000000000000000000000000000000600052604160045260246000fd5b6200031282620002c7565b810181811067ffffffffffffffff82111715620003345762000333620002d8565b5b80604052505050565b60006200034962000273565b905062000357828262000307565b919050565b600067ffffffffffffffff8211156200037a5762000379620002d8565b5b602082029050602081019050919050565b600080fd5b600080fd5b600067ffffffffffffffff821115620003b357620003b2620002d8565b5b620003be82620002c7565b9050602081019050919050565b60005b83811015620003eb578082015181840152602081019050620003ce565b60008484015250505050565b60006200040e620004088462000395565b6200033d565b9050828152602081018484840111156200042d576200042c62000390565b5b6200043a848285620003cb565b509392505050565b600082601f8301126200045a5762000459620002c2565b5b81516200046c848260208601620003f7565b91505092915050565b60006200048c62000486846200035c565b6200033d565b90508083825260208201905060208402830185811115620004b257620004b16200038b565b5b835b818110156200050057805167ffffffffffffffff811115620004db57620004da620002c2565b5b808601620004ea898262000442565b85526020850194505050602081019050620004b4565b5050509392505050565b600082601f830112620005225762000521620002c2565b5b81516200053484826020860162000475565b91505092915050565b600067ffffffffffffffff8211156200055b576200055a620002d8565b5b602082029050919050565b60006200057d62000577846200053d565b6200033d565b905080602084028301858111156200059a57620005996200038b565b5b835b81811015620005c75780620005b28882620002ab565b8452602084019350506020810190506200059c565b5050509392505050565b600082601f830112620005e957620005e8620002c2565b5b6005620005f884828562000566565b91505092915050565b60008060008060008061014087890312156200062257620006216200027d565b5b60006200063289828a01620002ab565b965050602087015167ffffffffffffffff81111562000656576200065562000282565b5b6200066489828a016200050a565b955050604087015167ffffffffffffffff81111562000688576200068762000282565b5b6200069689828a016200050a565b945050606087015167ffffffffffffffff811115620006ba57620006b962000282565b5b620006c889828a016200050a565b9350506080620006db89828a01620005d1565b925050610120620006ef89828a01620002ab565b9150509295509295509295565b7f4e487b7100000000000000000000000000000000000000000000000000000000600052603260045260246000fd5b600081519050919050565b7f4e487b7100000000000000000000000000000000000000000000000000000000600052602260045260246000fd5b600060028204905060018216806200077e57607f821691505b60208210810362000794576200079362000736565b5b50919050565b60008190508160005260206000209050919050565b60006020601f8301049050919050565b600082821b905092915050565b600060088302620007fe7fffffffffffffffffffffffffffffffffffffffffffffffffffffffffffffffff82620007bf565b6200080a8683620007bf565b95508019841693508086168417925050509392505050565b6000819050919050565b60006200084d62000847620008418462000287565b62000822565b62000287565b9050919050565b6000819050919050565b62000869836200082c565b62000881620008788262000854565b848454620007cc565b825550505050565b600090565b6200089862000889565b620008a58184846200085e565b505050565b5b81811015620008cd57620008c16000826200088e565b600181019050620008ab565b5050565b601f8211156200091c57620008e6816200079a565b620008f184620007af565b8101602085101562000901578190505b620009196200091085620007af565b830182620008aa565b50505b505050565b600082821c905092915050565b6000620009416000198460080262000921565b1980831691505092915050565b60006200095c83836200092e565b9150826002028217905092915050565b62000977826200072b565b67ffffffffffffffff811115620009935762000992620002d8565b5b6200099f825462000765565b620009ac828285620008d1565b600060209050601f831160018114620009e45760008415620009cf578287015190505b620009db85826200094e565b86555062000a4b565b601f198416620009f4866200079a565b60005b8281101562000a1e57848901518255600182019150602085019450602081019050620009f7565b8683101562000a3e578489015162000a3a601f8916826200092e565b8355505b6001600288020188555050505b505050505050565b6111948062000a636000396000f3fe608060405234801561001057600080fd5b50600436106100f55760003560e01c8063881f4e4411610097578063c241267611610066578063c241267614610279578063c65993b114610297578063d6b1f5d9146102c7578063fe3a4bd2146102f7576100f5565b8063881f4e44146101f15780639fa1246814610221578063a6193aba1461023f578063ae7bec2b1461025d576100f5565b8063329f5c41116100d3578063329f5c411461016757806336584c77146101855780635e6cb241146101a35780637c1fb3c3146101d3576100f5565b8063240f5838146100fa5780632bb8b0dc146101185780632e4176cf14610149575b600080fd5b610102610315565b60405161010f9190610882565b60405180910390f35b610132600480360381019061012d91906108dd565b61031b565b60405161014092919061099a565b60405180910390f35b6101516103d7565b60405161015e9190610a0b565b60405180910390f35b61016f6103fb565b60405161017c9190610882565b60405180910390f35b61018d610401565b60405161019a9190610882565b60405180910390f35b6101bd60048036038101906101b891906108dd565b610407565b6040516101ca9190610a26565b60405180910390f35b6101db6104b3565b6040516101e89190610882565b60405180910390f35b61020b600480360381019061020691906108dd565b6104b9565b6040516102189190610b54565b60405180910390f35b61022961064b565b6040516102369190610882565b60405180910390f35b610247610651565b6040516102549190610882565b60405180910390f35b61027760048036038101906102729190610d91565b610657565b005b610281610705565b60405161028e9190610882565b60405180910390f35b6102b160048036038101906102ac91906108dd565b61070b565b6040516102be9190610a26565b60405180910390f35b6102e160048036038101906102dc91906108dd565b6107b7565b6040516102ee9190610a26565b60405180910390f35b6102ff610863565b60405161030c9190610882565b60405180910390f35b60065481565b600c818154811061032b57600080fd5b906000526020600020906002020160009150905080600001549080600101805461035490610e09565b80601f016020809104026020016040519081016040528092919081815260200182805461038090610e09565b80156103cd5780601f106103a2576101008083540402835291602001916103cd565b820191906000526020600020905b8154815290600101906020018083116103b057829003601f168201915b5050505050905082565b60008054906101000a900473ffffffffffffffffffffffffffffffffffffffff1681565b60085481565b60075481565b6009818154811061041757600080fd5b90600052602060002001600091509050805461043290610e09565b80601f016020809104026020016040519081016040528092919081815260200182805461045e90610e09565b80156104ab5780601f10610480576101008083540402835291602001916104ab565b820191906000526020600020905b81548152906001019060200180831161048e57829003601f168201915b505050505081565b60025481565b60606000600c8054905067ffffffffffffffff8111156104dc576104db610b7b565b5b60405190808252806020026020018201604052801561050f57816020015b60608152602001906001900390816104fa5790505b5090506000805b600c8054905081101561063d5784600c828154811061053857610537610e3a565b5b9060005260206000209060020201600001540361062a57600c818154811061056357610562610e3a565b5b9060005260206000209060020201600101805461057f90610e09565b80601f01602080910402602001604051908101604052809291908181526020018280546105ab90610e09565b80156105f85780601f106105cd576101008083540402835291602001916105f8565b820191906000526020600020905b8154815290600101906020018083116105db57829003601f168201915b50505050508383815181106106105761060f610e3a565b5b6020026020010181905250818061062690610e98565b9250505b808061063590610e98565b915050610516565b508082528192505050919050565b60055481565b60045481565b60025481511461066657600080fd5b60005b815181101561070157600c604051806040016040528083815260200184848151811061069857610697610e3a565b5b602002602001015181525090806001815401808255809150506001900390600052602060002090600202016000909190919091506000820151816000015560208201518160010190816106eb919061108c565b50505080806106f990610e98565b915050610669565b5050565b60015481565b600b818154811061071b57600080fd5b90600052602060002001600091509050805461073690610e09565b80601f016020809104026020016040519081016040528092919081815260200182805461076290610e09565b80156107af5780601f10610784576101008083540402835291602001916107af565b820191906000526020600020905b81548152906001019060200180831161079257829003601f168201915b505050505081565b600a81815481106107c757600080fd5b9060005260206000200160009150905080546107e290610e09565b80601f016020809104026020016040519081016040528092919081815260200182805461080e90610e09565b801561085b5780601f106108305761010080835404028352916020019161085b565b820191906000526020600020905b81548152906001019060200180831161083e57829003601f168201915b505050505081565b60035481565b6000819050919050565b61087c81610869565b82525050565b60006020820190506108976000830184610873565b92915050565b6000604051905090565b600080fd5b600080fd5b6108ba81610869565b81146108c557600080fd5b50565b6000813590506108d7816108b1565b92915050565b6000602082840312156108f3576108f26108a7565b5b6000610901848285016108c8565b91505092915050565b600081519050919050565b600082825260208201905092915050565b60005b83811015610944578082015181840152602081019050610929565b60008484015250505050565b6000601f19601f8301169050919050565b600061096c8261090a565b6109768185610915565b9350610986818560208601610926565b61098f81610950565b840191505092915050565b60006040820190506109af6000830185610873565b81810360208301526109c18184610961565b90509392505050565b600073ffffffffffffffffffffffffffffffffffffffff82169050919050565b60006109f5826109ca565b9050919050565b610a05816109ea565b82525050565b6000602082019050610a2060008301846109fc565b92915050565b60006020820190508181036000830152610a408184610961565b905092915050565b600081519050919050565b600082825260208201905092915050565b6000819050602082019050919050565b600082825260208201905092915050565b6000610a908261090a565b610a9a8185610a74565b9350610aaa818560208601610926565b610ab381610950565b840191505092915050565b6000610aca8383610a85565b905092915050565b6000602082019050919050565b6000610aea82610a48565b610af48185610a53565b935083602082028501610b0685610a64565b8060005b85811015610b425784840389528151610b238582610abe565b9450610b2e83610ad2565b925060208a01995050600181019050610b0a565b50829750879550505050505092915050565b60006020820190508181036000830152610b6e8184610adf565b905092915050565b600080fd5b7f4e487b7100000000000000000000000000000000000000000000000000000000600052604160045260246000fd5b610bb382610950565b810181811067ffffffffffffffff82111715610bd257610bd1610b7b565b5b80604052505050565b6000610be561089d565b9050610bf18282610baa565b919050565b600067ffffffffffffffff821115610c1157610c10610b7b565b5b602082029050602081019050919050565b600080fd5b600080fd5b600067ffffffffffffffff821115610c4757610c46610b7b565b5b610c5082610950565b9050602081019050919050565b82818337600083830152505050565b6000610c7f610c7a84610c2c565b610bdb565b905082815260208101848484011115610c9b57610c9a610c27565b5b610ca6848285610c5d565b509392505050565b600082601f830112610cc357610cc2610b76565b5b8135610cd3848260208601610c6c565b91505092915050565b6000610cef610cea84610bf6565b610bdb565b90508083825260208201905060208402830185811115610d1257610d11610c22565b5b835b81811015610d5957803567ffffffffffffffff811115610d3757610d36610b76565b5b808601610d448982610cae565b85526020850194505050602081019050610d14565b5050509392505050565b600082601f830112610d7857610d77610b76565b5b8135610d88848260208601610cdc565b91505092915050565b600060208284031215610da757610da66108a7565b5b600082013567ffffffffffffffff811115610dc557610dc46108ac565b5b610dd184828501610d63565b91505092915050565b7f4e487b7100000000000000000000000000000000000000000000000000000000600052602260045260246000fd5b60006002820490506001821680610e2157607f821691505b602082108103610e3457610e33610dda565b5b50919050565b7f4e487b7100000000000000000000000000000000000000000000000000000000600052603260045260246000fd5b7f4e487b7100000000000000000000000000000000000000000000000000000000600052601160045260246000fd5b6000610ea382610869565b91507fffffffffffffffffffffffffffffffffffffffffffffffffffffffffffffffff8203610ed557610ed4610e69565b5b600182019050919050565b60008190508160005260206000209050919050565b60006020601f8301049050919050565b600082821b905092915050565b600060088302610f427fffffffffffffffffffffffffffffffffffffffffffffffffffffffffffffffff82610f05565b610f4c8683610f05565b95508019841693508086168417925050509392505050565b6000819050919050565b6000610f89610f84610f7f84610869565b610f64565b610869565b9050919050565b6000819050919050565b610fa383610f6e565b610fb7610faf82610f90565b848454610f12565b825550505050565b600090565b610fcc610fbf565b610fd7818484610f9a565b505050565b5b81811015610ffb57610ff0600082610fc4565b600181019050610fdd565b5050565b601f8211156110405761101181610ee0565b61101a84610ef5565b81016020851015611029578190505b61103d61103585610ef5565b830182610fdc565b50505b505050565b600082821c905092915050565b600061106360001984600802611045565b1980831691505092915050565b600061107c8383611052565b9150826002028217905092915050565b6110958261090a565b67ffffffffffffffff8111156110ae576110ad610b7b565b5b6110b88254610e09565b6110c3828285610fff565b600060209050601f8311600181146110f657600084156110e4578287015190505b6110ee8582611070565b865550611156565b601f19841661110486610ee0565b60005b8281101561112c57848901518255600182019150602085019450602081019050611107565b868310156111495784890151611145601f891682611052565b8355505b6001600288020188555050505b50505050505056fea2646970667358221220254a539ad87854ff52cb40df887ad38945b901ba78a1e64b4e8c11da7445846164736f6c63430008110033",
  "immutableReferences": {},
  "source": "\npragma solidity ^0.8.17;\n\n// SPDX-License-Identifier: GPL-3.0\n\ncontract Feedback {\n    address public chairperson;\n    uint256 public Token;\n    uint256 public questionsCount;\n    uint256 public candidatescount;\n    uint256 public StartRegisterTime;\n    uint256 public StopRegisterTime;\n    uint256 public StartFeedbackTime;\n    uint256 public StopFeedbackTime;\n    uint256 public StartResultTime;\n    string[] public RegNo;\n    string[] public Phone;\n    string[] public Email;\n   struct Feedbacks\n   {\n    uint qid;\n    string answer;\n   }\n   Feedbacks[] public feedbacks;\n   \n    \n    constructor(\n        uint256 token,\n        string[] memory regNo,\n        string[] memory phone,\n        string[] memory email,\n        uint256[5] memory Times,\n        uint256 NoOfQuestions\n    ) {\n        chairperson = msg.sender;\n        Token = token;\n        RegNo = regNo;\n        Phone = phone;\n        Email = email;\n        StartRegisterTime = Times[0];\n        StopRegisterTime = Times[1];\n        StartFeedbackTime = Times[2];\n        StopFeedbackTime = Times[3];\n        StartResultTime = Times[4];\n        questionsCount = NoOfQuestions;\n    }\n    function giveFeedback(string[] memory Answers) public {\n        require(Answers.length==questionsCount);\n        for(uint i=0;i<Answers.length;i++)\n        {\n            feedbacks.push(Feedbacks({\n                qid:i,\n                answer:Answers[i]\n        }));\n        }\n        \n       \n    }\n       // Function to retrieve all answers for a specific qid\n    function getAnswersForQid(uint _qid) public view returns (string[] memory) {\n        // Create a dynamic array to store answers for the given qid\n        string[] memory answersForQid = new string[](feedbacks.length);\n        uint count = 0;\n\n        // Loop through the feedbacks array\n        for (uint i = 0; i < feedbacks.length; i++) {\n            // Check if the qid matches\n            if (feedbacks[i].qid == _qid) {\n                // Add the answer to the dynamic array\n                answersForQid[count] = feedbacks[i].answer;\n                count++;\n            }\n        }\n\n        // Resize the array to remove unused space\n        assembly {\n            mstore(answersForQid, count)\n        }\n\n        return answersForQid;\n    }\n}",
  "sourcePath": "/home/yatin/Documents/Fiducia/contracts/Feedback.sol",
  "compiler": {
    "name": "solc",
    "version": "0.8.17+commit.8df45f5f.Emscripten.clang"
  },
  "schemaVersion": "3.4.15",
  "updatedAt": "2024-01-25T08:50:08.481Z",
  "networkType": "ethereum",
  "devdoc": {
    "kind": "dev",
    "methods": {},
    "version": 1
  },
  "userdoc": {
    "kind": "user",
    "methods": {},
    "version": 1
  }
}