{
  "contractName": "Feedback",
  "abi": [
    {
      "inputs": [
        {
          "internalType": "string",
          "name": "ipfs",
          "type": "string"
        },
        {
          "internalType": "string[]",
          "name": "regNo",
          "type": "string[]"
        },
        {
          "internalType": "string[]",
          "name": "phone",
          "type": "string[]"
        },
        {
          "internalType": "string[]",
          "name": "email",
          "type": "string[]"
        },
        {
          "internalType": "uint256[5]",
          "name": "Times",
          "type": "uint256[5]"
        },
        {
          "internalType": "uint256",
          "name": "NoOfQuestions",
          "type": "uint256"
        }
      ],
      "stateMutability": "nonpayable",
      "type": "constructor"
    },
    {
      "inputs": [
        {
          "internalType": "uint256",
          "name": "",
          "type": "uint256"
        }
      ],
      "name": "Email",
      "outputs": [
        {
          "internalType": "string",
          "name": "",
          "type": "string"
        }
      ],
      "stateMutability": "view",
      "type": "function",
      "constant": true
    },
    {
      "inputs": [],
      "name": "Ipfs",
      "outputs": [
        {
          "internalType": "string",
          "name": "",
          "type": "string"
        }
      ],
      "stateMutability": "view",
      "type": "function",
      "constant": true
    },
    {
      "inputs": [
        {
          "internalType": "uint256",
          "name": "",
          "type": "uint256"
        }
      ],
      "name": "Phone",
      "outputs": [
        {
          "internalType": "string",
          "name": "",
          "type": "string"
        }
      ],
      "stateMutability": "view",
      "type": "function",
      "constant": true
    },
    {
      "inputs": [
        {
          "internalType": "uint256",
          "name": "",
          "type": "uint256"
        }
      ],
      "name": "RegNo",
      "outputs": [
        {
          "internalType": "string",
          "name": "",
          "type": "string"
        }
      ],
      "stateMutability": "view",
      "type": "function",
      "constant": true
    },
    {
      "inputs": [],
      "name": "StartFeedbackTime",
      "outputs": [
        {
          "internalType": "uint256",
          "name": "",
          "type": "uint256"
        }
      ],
      "stateMutability": "view",
      "type": "function",
      "constant": true
    },
    {
      "inputs": [],
      "name": "StartRegisterTime",
      "outputs": [
        {
          "internalType": "uint256",
          "name": "",
          "type": "uint256"
        }
      ],
      "stateMutability": "view",
      "type": "function",
      "constant": true
    },
    {
      "inputs": [],
      "name": "StartResultTime",
      "outputs": [
        {
          "internalType": "uint256",
          "name": "",
          "type": "uint256"
        }
      ],
      "stateMutability": "view",
      "type": "function",
      "constant": true
    },
    {
      "inputs": [],
      "name": "StopFeedbackTime",
      "outputs": [
        {
          "internalType": "uint256",
          "name": "",
          "type": "uint256"
        }
      ],
      "stateMutability": "view",
      "type": "function",
      "constant": true
    },
    {
      "inputs": [],
      "name": "StopRegisterTime",
      "outputs": [
        {
          "internalType": "uint256",
          "name": "",
          "type": "uint256"
        }
      ],
      "stateMutability": "view",
      "type": "function",
      "constant": true
    },
    {
      "inputs": [],
      "name": "candidatescount",
      "outputs": [
        {
          "internalType": "uint256",
          "name": "",
          "type": "uint256"
        }
      ],
      "stateMutability": "view",
      "type": "function",
      "constant": true
    },
    {
      "inputs": [],
      "name": "chairperson",
      "outputs": [
        {
          "internalType": "address",
          "name": "",
          "type": "address"
        }
      ],
      "stateMutability": "view",
      "type": "function",
      "constant": true
    },
    {
      "inputs": [
        {
          "internalType": "uint256",
          "name": "",
          "type": "uint256"
        }
      ],
      "name": "feedbacks",
      "outputs": [
        {
          "internalType": "uint256",
          "name": "qid",
          "type": "uint256"
        },
        {
          "internalType": "string",
          "name": "answer",
          "type": "string"
        }
      ],
      "stateMutability": "view",
      "type": "function",
      "constant": true
    },
    {
      "inputs": [],
      "name": "questionsCount",
      "outputs": [
        {
          "internalType": "uint256",
          "name": "",
          "type": "uint256"
        }
      ],
      "stateMutability": "view",
      "type": "function",
      "constant": true
    },
    {
      "inputs": [
        {
          "internalType": "string[]",
          "name": "Answers",
          "type": "string[]"
        }
      ],
      "name": "giveFeedback",
      "outputs": [],
      "stateMutability": "nonpayable",
      "type": "function"
    },
    {
      "inputs": [
        {
          "internalType": "uint256",
          "name": "_qid",
          "type": "uint256"
        }
      ],
      "name": "getAnswersForQid",
      "outputs": [
        {
          "internalType": "string[]",
          "name": "",
          "type": "string[]"
        }
      ],
      "stateMutability": "view",
      "type": "function",
      "constant": true
    }
  ],
  "bytecode": "0x60806040523480156200001157600080fd5b5060405162001ca938038062001ca983398181016040528101906200003791906200060c565b336000806101000a81548173ffffffffffffffffffffffffffffffffffffffff021916908373ffffffffffffffffffffffffffffffffffffffff160217905550856001908162000088919062000967565b508460099080519060200190620000a192919062000191565b5083600a9080519060200190620000ba92919062000191565b5082600b9080519060200190620000d392919062000191565b5081600060058110620000eb57620000ea62000a4e565b5b6020020151600481905550816001600581106200010d576200010c62000a4e565b5b6020020151600581905550816002600581106200012f576200012e62000a4e565b5b60200201516006819055508160036005811062000151576200015062000a4e565b5b60200201516007819055508160046005811062000173576200017262000a4e565b5b60200201516008819055508060028190555050505050505062000a7d565b828054828255906000526020600020908101928215620001de579160200282015b82811115620001dd578251829081620001cc919062000967565b5091602001919060010190620001b2565b5b509050620001ed9190620001f1565b5090565b5b808211156200021557600081816200020b919062000219565b50600101620001f2565b5090565b508054620002279062000760565b6000825580601f106200023b57506200025c565b601f0160209004906000526020600020908101906200025b91906200025f565b5b50565b5b808211156200027a57600081600090555060010162000260565b5090565b6000604051905090565b600080fd5b600080fd5b600080fd5b600080fd5b6000601f19601f8301169050919050565b7f4e487b7100000000000000000000000000000000000000000000000000000000600052604160045260246000fd5b620002e7826200029c565b810181811067ffffffffffffffff82111715620003095762000308620002ad565b5b80604052505050565b60006200031e6200027e565b90506200032c8282620002dc565b919050565b600067ffffffffffffffff8211156200034f576200034e620002ad565b5b6200035a826200029c565b9050602081019050919050565b60005b83811015620003875780820151818401526020810190506200036a565b60008484015250505050565b6000620003aa620003a48462000331565b62000312565b905082815260208101848484011115620003c957620003c862000297565b5b620003d684828562000367565b509392505050565b600082601f830112620003f657620003f562000292565b5b81516200040884826020860162000393565b91505092915050565b600067ffffffffffffffff8211156200042f576200042e620002ad565b5b602082029050602081019050919050565b600080fd5b60006200045c620004568462000411565b62000312565b9050808382526020820190506020840283018581111562000482576200048162000440565b5b835b81811015620004d057805167ffffffffffffffff811115620004ab57620004aa62000292565b5b808601620004ba8982620003de565b8552602085019450505060208101905062000484565b5050509392505050565b600082601f830112620004f257620004f162000292565b5b81516200050484826020860162000445565b91505092915050565b600067ffffffffffffffff8211156200052b576200052a620002ad565b5b602082029050919050565b6000819050919050565b6200054b8162000536565b81146200055757600080fd5b50565b6000815190506200056b8162000540565b92915050565b60006200058862000582846200050d565b62000312565b90508060208402830185811115620005a557620005a462000440565b5b835b81811015620005d25780620005bd88826200055a565b845260208401935050602081019050620005a7565b5050509392505050565b600082601f830112620005f457620005f362000292565b5b60056200060384828562000571565b91505092915050565b60008060008060008061014087890312156200062d576200062c62000288565b5b600087015167ffffffffffffffff8111156200064e576200064d6200028d565b5b6200065c89828a01620003de565b965050602087015167ffffffffffffffff81111562000680576200067f6200028d565b5b6200068e89828a01620004da565b955050604087015167ffffffffffffffff811115620006b257620006b16200028d565b5b620006c089828a01620004da565b945050606087015167ffffffffffffffff811115620006e457620006e36200028d565b5b620006f289828a01620004da565b93505060806200070589828a01620005dc565b9250506101206200071989828a016200055a565b9150509295509295509295565b600081519050919050565b7f4e487b7100000000000000000000000000000000000000000000000000000000600052602260045260246000fd5b600060028204905060018216806200077957607f821691505b6020821081036200078f576200078e62000731565b5b50919050565b60008190508160005260206000209050919050565b60006020601f8301049050919050565b600082821b905092915050565b600060088302620007f97fffffffffffffffffffffffffffffffffffffffffffffffffffffffffffffffff82620007ba565b620008058683620007ba565b95508019841693508086168417925050509392505050565b6000819050919050565b600062000848620008426200083c8462000536565b6200081d565b62000536565b9050919050565b6000819050919050565b620008648362000827565b6200087c62000873826200084f565b848454620007c7565b825550505050565b600090565b6200089362000884565b620008a081848462000859565b505050565b5b81811015620008c857620008bc60008262000889565b600181019050620008a6565b5050565b601f8211156200091757620008e18162000795565b620008ec84620007aa565b81016020851015620008fc578190505b620009146200090b85620007aa565b830182620008a5565b50505b505050565b600082821c905092915050565b60006200093c600019846008026200091c565b1980831691505092915050565b600062000957838362000929565b9150826002028217905092915050565b620009728262000726565b67ffffffffffffffff8111156200098e576200098d620002ad565b5b6200099a825462000760565b620009a7828285620008cc565b600060209050601f831160018114620009df5760008415620009ca578287015190505b620009d6858262000949565b86555062000a46565b601f198416620009ef8662000795565b60005b8281101562000a1957848901518255600182019150602085019450602081019050620009f2565b8683101562000a39578489015162000a35601f89168262000929565b8355505b6001600288020188555050505b505050505050565b7f4e487b7100000000000000000000000000000000000000000000000000000000600052603260045260246000fd5b61121c8062000a8d6000396000f3fe608060405234801561001057600080fd5b50600436106100f55760003560e01c80637c1fb3c311610097578063ae7bec2b11610066578063ae7bec2b1461027b578063c65993b114610297578063d6b1f5d9146102c7578063fe3a4bd2146102f7576100f5565b80637c1fb3c3146101f1578063881f4e441461020f5780639fa124681461023f578063a6193aba1461025d576100f5565b80632e4176cf116100d35780632e4176cf14610167578063329f5c411461018557806336584c77146101a35780635e6cb241146101c1576100f5565b80631f7eb4d5146100fa578063240f5838146101185780632bb8b0dc14610136575b600080fd5b610102610315565b60405161010f9190610981565b60405180910390f35b6101206103a3565b60405161012d91906109bc565b60405180910390f35b610150600480360381019061014b9190610a17565b6103a9565b60405161015e929190610a44565b60405180910390f35b61016f610465565b60405161017c9190610ab5565b60405180910390f35b61018d610489565b60405161019a91906109bc565b60405180910390f35b6101ab61048f565b6040516101b891906109bc565b60405180910390f35b6101db60048036038101906101d69190610a17565b610495565b6040516101e89190610981565b60405180910390f35b6101f9610541565b60405161020691906109bc565b60405180910390f35b61022960048036038101906102249190610a17565b610547565b6040516102369190610bdc565b60405180910390f35b6102476106d9565b60405161025491906109bc565b60405180910390f35b6102656106df565b60405161027291906109bc565b60405180910390f35b61029560048036038101906102909190610e19565b6106e5565b005b6102b160048036038101906102ac9190610a17565b610793565b6040516102be9190610981565b60405180910390f35b6102e160048036038101906102dc9190610a17565b61083f565b6040516102ee9190610981565b60405180910390f35b6102ff6108eb565b60405161030c91906109bc565b60405180910390f35b6001805461032290610e91565b80601f016020809104026020016040519081016040528092919081815260200182805461034e90610e91565b801561039b5780601f106103705761010080835404028352916020019161039b565b820191906000526020600020905b81548152906001019060200180831161037e57829003601f168201915b505050505081565b60065481565b600c81815481106103b957600080fd5b90600052602060002090600202016000915090508060000154908060010180546103e290610e91565b80601f016020809104026020016040519081016040528092919081815260200182805461040e90610e91565b801561045b5780601f106104305761010080835404028352916020019161045b565b820191906000526020600020905b81548152906001019060200180831161043e57829003601f168201915b5050505050905082565b60008054906101000a900473ffffffffffffffffffffffffffffffffffffffff1681565b60085481565b60075481565b600981815481106104a557600080fd5b9060005260206000200160009150905080546104c090610e91565b80601f01602080910402602001604051908101604052809291908181526020018280546104ec90610e91565b80156105395780601f1061050e57610100808354040283529160200191610539565b820191906000526020600020905b81548152906001019060200180831161051c57829003601f168201915b505050505081565b60025481565b60606000600c8054905067ffffffffffffffff81111561056a57610569610c03565b5b60405190808252806020026020018201604052801561059d57816020015b60608152602001906001900390816105885790505b5090506000805b600c805490508110156106cb5784600c82815481106105c6576105c5610ec2565b5b906000526020600020906002020160000154036106b857600c81815481106105f1576105f0610ec2565b5b9060005260206000209060020201600101805461060d90610e91565b80601f016020809104026020016040519081016040528092919081815260200182805461063990610e91565b80156106865780601f1061065b57610100808354040283529160200191610686565b820191906000526020600020905b81548152906001019060200180831161066957829003601f168201915b505050505083838151811061069e5761069d610ec2565b5b602002602001018190525081806106b490610f20565b9250505b80806106c390610f20565b9150506105a4565b508082528192505050919050565b60055481565b60045481565b6002548151146106f457600080fd5b60005b815181101561078f57600c604051806040016040528083815260200184848151811061072657610725610ec2565b5b602002602001015181525090806001815401808255809150506001900390600052602060002090600202016000909190919091506000820151816000015560208201518160010190816107799190611114565b505050808061078790610f20565b9150506106f7565b5050565b600b81815481106107a357600080fd5b9060005260206000200160009150905080546107be90610e91565b80601f01602080910402602001604051908101604052809291908181526020018280546107ea90610e91565b80156108375780601f1061080c57610100808354040283529160200191610837565b820191906000526020600020905b81548152906001019060200180831161081a57829003601f168201915b505050505081565b600a818154811061084f57600080fd5b90600052602060002001600091509050805461086a90610e91565b80601f016020809104026020016040519081016040528092919081815260200182805461089690610e91565b80156108e35780601f106108b8576101008083540402835291602001916108e3565b820191906000526020600020905b8154815290600101906020018083116108c657829003601f168201915b505050505081565b60035481565b600081519050919050565b600082825260208201905092915050565b60005b8381101561092b578082015181840152602081019050610910565b60008484015250505050565b6000601f19601f8301169050919050565b6000610953826108f1565b61095d81856108fc565b935061096d81856020860161090d565b61097681610937565b840191505092915050565b6000602082019050818103600083015261099b8184610948565b905092915050565b6000819050919050565b6109b6816109a3565b82525050565b60006020820190506109d160008301846109ad565b92915050565b6000604051905090565b600080fd5b600080fd5b6109f4816109a3565b81146109ff57600080fd5b50565b600081359050610a11816109eb565b92915050565b600060208284031215610a2d57610a2c6109e1565b5b6000610a3b84828501610a02565b91505092915050565b6000604082019050610a5960008301856109ad565b8181036020830152610a6b8184610948565b90509392505050565b600073ffffffffffffffffffffffffffffffffffffffff82169050919050565b6000610a9f82610a74565b9050919050565b610aaf81610a94565b82525050565b6000602082019050610aca6000830184610aa6565b92915050565b600081519050919050565b600082825260208201905092915050565b6000819050602082019050919050565b600082825260208201905092915050565b6000610b18826108f1565b610b228185610afc565b9350610b3281856020860161090d565b610b3b81610937565b840191505092915050565b6000610b528383610b0d565b905092915050565b6000602082019050919050565b6000610b7282610ad0565b610b7c8185610adb565b935083602082028501610b8e85610aec565b8060005b85811015610bca5784840389528151610bab8582610b46565b9450610bb683610b5a565b925060208a01995050600181019050610b92565b50829750879550505050505092915050565b60006020820190508181036000830152610bf68184610b67565b905092915050565b600080fd5b7f4e487b7100000000000000000000000000000000000000000000000000000000600052604160045260246000fd5b610c3b82610937565b810181811067ffffffffffffffff82111715610c5a57610c59610c03565b5b80604052505050565b6000610c6d6109d7565b9050610c798282610c32565b919050565b600067ffffffffffffffff821115610c9957610c98610c03565b5b602082029050602081019050919050565b600080fd5b600080fd5b600067ffffffffffffffff821115610ccf57610cce610c03565b5b610cd882610937565b9050602081019050919050565b82818337600083830152505050565b6000610d07610d0284610cb4565b610c63565b905082815260208101848484011115610d2357610d22610caf565b5b610d2e848285610ce5565b509392505050565b600082601f830112610d4b57610d4a610bfe565b5b8135610d5b848260208601610cf4565b91505092915050565b6000610d77610d7284610c7e565b610c63565b90508083825260208201905060208402830185811115610d9a57610d99610caa565b5b835b81811015610de157803567ffffffffffffffff811115610dbf57610dbe610bfe565b5b808601610dcc8982610d36565b85526020850194505050602081019050610d9c565b5050509392505050565b600082601f830112610e0057610dff610bfe565b5b8135610e10848260208601610d64565b91505092915050565b600060208284031215610e2f57610e2e6109e1565b5b600082013567ffffffffffffffff811115610e4d57610e4c6109e6565b5b610e5984828501610deb565b91505092915050565b7f4e487b7100000000000000000000000000000000000000000000000000000000600052602260045260246000fd5b60006002820490506001821680610ea957607f821691505b602082108103610ebc57610ebb610e62565b5b50919050565b7f4e487b7100000000000000000000000000000000000000000000000000000000600052603260045260246000fd5b7f4e487b7100000000000000000000000000000000000000000000000000000000600052601160045260246000fd5b6000610f2b826109a3565b91507fffffffffffffffffffffffffffffffffffffffffffffffffffffffffffffffff8203610f5d57610f5c610ef1565b5b600182019050919050565b60008190508160005260206000209050919050565b60006020601f8301049050919050565b600082821b905092915050565b600060088302610fca7fffffffffffffffffffffffffffffffffffffffffffffffffffffffffffffffff82610f8d565b610fd48683610f8d565b95508019841693508086168417925050509392505050565b6000819050919050565b600061101161100c611007846109a3565b610fec565b6109a3565b9050919050565b6000819050919050565b61102b83610ff6565b61103f61103782611018565b848454610f9a565b825550505050565b600090565b611054611047565b61105f818484611022565b505050565b5b818110156110835761107860008261104c565b600181019050611065565b5050565b601f8211156110c85761109981610f68565b6110a284610f7d565b810160208510156110b1578190505b6110c56110bd85610f7d565b830182611064565b50505b505050565b600082821c905092915050565b60006110eb600019846008026110cd565b1980831691505092915050565b600061110483836110da565b9150826002028217905092915050565b61111d826108f1565b67ffffffffffffffff81111561113657611135610c03565b5b6111408254610e91565b61114b828285611087565b600060209050601f83116001811461117e576000841561116c578287015190505b61117685826110f8565b8655506111de565b601f19841661118c86610f68565b60005b828110156111b45784890151825560018201915060208501945060208101905061118f565b868310156111d157848901516111cd601f8916826110da565b8355505b6001600288020188555050505b50505050505056fea2646970667358221220d2012001f7c16f1244885fb595a829bd832875bbf2d6591699a97414e635bd2064736f6c63430008110033",
  "immutableReferences": {},
  "source": "\npragma solidity ^0.8.17;\n\n// SPDX-License-Identifier: GPL-3.0\n\ncontract Feedback {\n    address public chairperson;\n    string public Ipfs;\n    uint256 public questionsCount;\n    uint256 public candidatescount;\n    uint256 public StartRegisterTime;\n    uint256 public StopRegisterTime;\n    uint256 public StartFeedbackTime;\n    uint256 public StopFeedbackTime;\n    uint256 public StartResultTime;\n    string[] public RegNo;\n    string[] public Phone;\n    string[] public Email;\n   struct Feedbacks\n   {\n    uint qid;\n    string answer;\n   }\n   Feedbacks[] public feedbacks;\n   \n    \n    constructor(\n        string memory ipfs,\n        string[] memory regNo,\n        string[] memory phone,\n        string[] memory email,\n        uint256[5] memory Times,\n        uint256 NoOfQuestions\n    ) {\n        chairperson = msg.sender;\n        Ipfs = ipfs;\n        RegNo = regNo;\n        Phone = phone;\n        Email = email;\n        StartRegisterTime = Times[0];\n        StopRegisterTime = Times[1];\n        StartFeedbackTime = Times[2];\n        StopFeedbackTime = Times[3];\n        StartResultTime = Times[4];\n        questionsCount = NoOfQuestions;\n    }\n    function giveFeedback(string[] memory Answers) public {\n        require(Answers.length==questionsCount);\n        for(uint i=0;i<Answers.length;i++)\n        {\n            feedbacks.push(Feedbacks({\n                qid:i,\n                answer:Answers[i]\n        }));\n        }\n        \n       \n    }\n       // Function to retrieve all answers for a specific qid\n    function getAnswersForQid(uint _qid) public view returns (string[] memory) {\n        // Create a dynamic array to store answers for the given qid\n        string[] memory answersForQid = new string[](feedbacks.length);\n        uint count = 0;\n\n        // Loop through the feedbacks array\n        for (uint i = 0; i < feedbacks.length; i++) {\n            // Check if the qid matches\n            if (feedbacks[i].qid == _qid) {\n                // Add the answer to the dynamic array\n                answersForQid[count] = feedbacks[i].answer;\n                count++;\n            }\n        }\n\n        // Resize the array to remove unused space\n        assembly {\n            mstore(answersForQid, count)\n        }\n\n        return answersForQid;\n    }\n}",
  "sourcePath": "/home/yatin/Documents/Fiducia/contracts/Feedback.sol",
  "compiler": {
    "name": "solc",
    "version": "0.8.17+commit.8df45f5f.Emscripten.clang"
  },
  "schemaVersion": "3.4.15",
  "updatedAt": "2024-01-26T13:59:23.045Z",
  "networkType": "ethereum",
  "devdoc": {
    "kind": "dev",
    "methods": {},
    "version": 1
  },
  "userdoc": {
    "kind": "user",
    "methods": {},
    "version": 1
  }
}